{
  "address": "0x03313eC6073201b5E46E7F6eB938d328941803E9",
  "abi": [
    {
      "inputs": [
        {
          "internalType": "address",
          "name": "_admin",
          "type": "address"
        }
      ],
      "stateMutability": "nonpayable",
      "type": "constructor"
    },
    {
      "anonymous": false,
      "inputs": [
        {
          "indexed": false,
          "internalType": "address",
          "name": "oldAdmin",
          "type": "address"
        },
        {
          "indexed": false,
          "internalType": "address",
          "name": "newAdmin",
          "type": "address"
        }
      ],
      "name": "NewAdmin",
      "type": "event"
    },
    {
      "anonymous": false,
      "inputs": [
        {
          "indexed": false,
          "internalType": "address",
          "name": "oldPendingAdmin",
          "type": "address"
        },
        {
          "indexed": false,
          "internalType": "address",
          "name": "newPendingAdmin",
          "type": "address"
        }
      ],
      "name": "NewPendingAdmin",
      "type": "event"
    },
    {
      "inputs": [],
      "name": "acceptAdmin",
      "outputs": [],
      "stateMutability": "nonpayable",
      "type": "function"
    },
    {
      "inputs": [],
      "name": "admin",
      "outputs": [
        {
          "internalType": "address",
          "name": "",
          "type": "address"
        }
      ],
      "stateMutability": "view",
      "type": "function"
    },
    {
      "inputs": [
        {
          "internalType": "address",
          "name": "account",
          "type": "address"
        }
      ],
      "name": "isAdmin",
      "outputs": [
        {
          "internalType": "bool",
          "name": "",
          "type": "bool"
        }
      ],
      "stateMutability": "view",
      "type": "function"
    },
    {
      "inputs": [
        {
          "internalType": "address",
          "name": "account",
          "type": "address"
        }
      ],
      "name": "isPendingAdmin",
      "outputs": [
        {
          "internalType": "bool",
          "name": "",
          "type": "bool"
        }
      ],
      "stateMutability": "view",
      "type": "function"
    },
    {
      "inputs": [],
      "name": "pendingAdmin",
      "outputs": [
        {
          "internalType": "address",
          "name": "",
          "type": "address"
        }
      ],
      "stateMutability": "view",
      "type": "function"
    },
    {
      "inputs": [
        {
          "internalType": "address",
          "name": "admin_",
          "type": "address"
        }
      ],
      "name": "setPendingAdmin",
      "outputs": [],
      "stateMutability": "nonpayable",
      "type": "function"
    }
  ],
  "transactionHash": "0xd83949ecd973d535ce386c60dfcdbe69db23e8389fcffab9e000d8fde5e692d0",
  "args": [
    "0x41a33c1a6b8aa7c5968303AE79d416d0889f35E1"
  ],
  "solcInputHash": "b7597338a4de26f0728b179094988ff3",
  "bytecode": "0x608060405234801561001057600080fd5b506040516104bd3803806104bd8339818101604052602081101561003357600080fd5b5051600080546001600160a01b0319166001600160a01b0380841691909117808355604080519384529116602083015280517ff9ffabca9c8276e99321725bcb43fb076a6c66a54b7f21c4e8146d8519b417dc9281900390910190a15061041e8061009f6000396000f3fe608060405234801561001057600080fd5b50600436106100625760003560e01c80630e18b6811461006757806324d7806c1461007157806326782247146100ab5780632afd0143146100cf5780634dd18bf5146100f5578063f851a4401461011b575b600080fd5b61006f610123565b005b6100976004803603602081101561008757600080fd5b50356001600160a01b031661022e565b604080519115158252519081900360200190f35b6100b3610242565b604080516001600160a01b039092168252519081900360200190f35b610097600480360360208110156100e557600080fd5b50356001600160a01b0316610251565b61006f6004803603602081101561010b57600080fd5b50356001600160a01b0316610265565b6100b36103b5565b61012c33610251565b610171576040805162461bcd60e51b81526020600482015260116024820152702737ba103832b73234b7339030b236b4b760791b604482015290519081900360640190fd5b600080546001546001600160a01b031982166001600160a01b0391821617928390556040805192821680845293909116602083015280517ff9ffabca9c8276e99321725bcb43fb076a6c66a54b7f21c4e8146d8519b417dc9281900390910190a1600180546001600160a01b03198116909155604080516001600160a01b0390921680835260006020840152815190927fca4f2f25d0898edd99413412fb94012f9e54ec8142f9b093e7720646a95b16a992908290030190a15050565b6000546001600160a01b0390811691161490565b6001546001600160a01b031681565b6001546001600160a01b0390811691161490565b61026e3361022e565b6102ab576040805162461bcd60e51b81526020600482015260096024820152682737ba1030b236b4b760b91b604482015290519081900360640190fd5b6001600160a01b038116610306576040805162461bcd60e51b815260206004820152601c60248201527f6e65772061646d696e2073686f756c646e277420626520656d70747900000000604482015290519081900360640190fd5b6000546001600160a01b03828116911614156103535760405162461bcd60e51b81526004018080602001828103825260248152602001806103c56024913960400191505060405180910390fd5b600180546001600160a01b038381166001600160a01b0319831617928390556040805192821680845293909116602083015280517fca4f2f25d0898edd99413412fb94012f9e54ec8142f9b093e7720646a95b16a99281900390910190a15050565b6000546001600160a01b03168156fe6e65772061646d696e2069732074686520736176652077697468206f6c642061646d696ea26469706673582212209284e50e2e70aa49d16fc289f0cada4172e25e91babfebc31cbe074264782d2e64736f6c63430007040033",
  "devdoc": {
    "kind": "dev",
    "methods": {},
    "version": 1
  },
  "userdoc": {
    "kind": "user",
    "methods": {},
    "version": 1
  },
  "storageLayout": {
    "storage": [
      {
        "astId": 2477,
        "contract": "contracts/core/AdminStorage.sol:AdminStorage",
        "label": "admin",
        "offset": 0,
        "slot": "0",
        "type": "t_address"
      },
      {
        "astId": 2479,
        "contract": "contracts/core/AdminStorage.sol:AdminStorage",
        "label": "pendingAdmin",
        "offset": 0,
        "slot": "1",
        "type": "t_address"
      }
    ],
    "types": {
      "t_address": {
        "encoding": "inplace",
        "label": "address",
        "numberOfBytes": "20"
      }
    }
  }
}