{
  "address": "0x30C349e925f24e595aa6e2CE0d83281Dfd37A4BB",
  "abi": [
    {
      "inputs": [
        {
          "internalType": "address",
          "name": "_store",
          "type": "address"
        },
        {
          "internalType": "address",
          "name": "_swapStore",
          "type": "address"
        },
        {
          "internalType": "contract IMdexChef",
          "name": "_chef",
          "type": "address"
        },
        {
          "internalType": "address",
          "name": "_chefToken",
          "type": "address"
        },
        {
          "internalType": "address",
          "name": "_lpToken",
          "type": "address"
        },
        {
          "internalType": "uint256",
          "name": "_pid",
          "type": "uint256"
        }
      ],
      "stateMutability": "nonpayable",
      "type": "constructor"
    },
    {
      "anonymous": false,
      "inputs": [
        {
          "indexed": true,
          "internalType": "address",
          "name": "owner",
          "type": "address"
        },
        {
          "indexed": true,
          "internalType": "address",
          "name": "spender",
          "type": "address"
        },
        {
          "indexed": false,
          "internalType": "uint256",
          "name": "value",
          "type": "uint256"
        }
      ],
      "name": "Approval",
      "type": "event"
    },
    {
      "anonymous": false,
      "inputs": [
        {
          "indexed": true,
          "internalType": "address",
          "name": "forAddr",
          "type": "address"
        },
        {
          "indexed": false,
          "internalType": "uint256",
          "name": "share",
          "type": "uint256"
        },
        {
          "indexed": false,
          "internalType": "uint256",
          "name": "amount",
          "type": "uint256"
        }
      ],
      "name": "Deposit",
      "type": "event"
    },
    {
      "anonymous": false,
      "inputs": [
        {
          "indexed": false,
          "internalType": "uint256",
          "name": "share",
          "type": "uint256"
        },
        {
          "indexed": false,
          "internalType": "uint256",
          "name": "oldAmount",
          "type": "uint256"
        },
        {
          "indexed": false,
          "internalType": "uint256",
          "name": "newAmount",
          "type": "uint256"
        }
      ],
      "name": "HardWork",
      "type": "event"
    },
    {
      "anonymous": false,
      "inputs": [
        {
          "indexed": false,
          "internalType": "address",
          "name": "account",
          "type": "address"
        }
      ],
      "name": "Paused",
      "type": "event"
    },
    {
      "anonymous": false,
      "inputs": [
        {
          "indexed": true,
          "internalType": "address",
          "name": "from",
          "type": "address"
        },
        {
          "indexed": true,
          "internalType": "address",
          "name": "to",
          "type": "address"
        },
        {
          "indexed": false,
          "internalType": "uint256",
          "name": "value",
          "type": "uint256"
        }
      ],
      "name": "Transfer",
      "type": "event"
    },
    {
      "anonymous": false,
      "inputs": [
        {
          "indexed": false,
          "internalType": "address",
          "name": "account",
          "type": "address"
        }
      ],
      "name": "Unpaused",
      "type": "event"
    },
    {
      "anonymous": false,
      "inputs": [
        {
          "indexed": true,
          "internalType": "address",
          "name": "forAddr",
          "type": "address"
        },
        {
          "indexed": false,
          "internalType": "uint256",
          "name": "share",
          "type": "uint256"
        },
        {
          "indexed": false,
          "internalType": "uint256",
          "name": "amount",
          "type": "uint256"
        }
      ],
      "name": "Withdraw",
      "type": "event"
    },
    {
      "inputs": [
        {
          "internalType": "address",
          "name": "",
          "type": "address"
        }
      ],
      "name": "accountDeposited",
      "outputs": [
        {
          "internalType": "uint256",
          "name": "",
          "type": "uint256"
        }
      ],
      "stateMutability": "view",
      "type": "function"
    },
    {
      "inputs": [
        {
          "internalType": "address",
          "name": "account",
          "type": "address"
        }
      ],
      "name": "accountSnapshot",
      "outputs": [
        {
          "internalType": "uint256",
          "name": "deposited",
          "type": "uint256"
        },
        {
          "internalType": "uint256",
          "name": "balance",
          "type": "uint256"
        },
        {
          "internalType": "uint256",
          "name": "exchangeRate",
          "type": "uint256"
        },
        {
          "internalType": "uint256",
          "name": "timestamp",
          "type": "uint256"
        }
      ],
      "stateMutability": "view",
      "type": "function"
    },
    {
      "inputs": [],
      "name": "admin",
      "outputs": [
        {
          "internalType": "address",
          "name": "",
          "type": "address"
        }
      ],
      "stateMutability": "view",
      "type": "function"
    },
    {
      "inputs": [],
      "name": "adminStorage",
      "outputs": [
        {
          "internalType": "contract AdminStorage",
          "name": "",
          "type": "address"
        }
      ],
      "stateMutability": "view",
      "type": "function"
    },
    {
      "inputs": [
        {
          "internalType": "address",
          "name": "owner",
          "type": "address"
        },
        {
          "internalType": "address",
          "name": "spender",
          "type": "address"
        }
      ],
      "name": "allowance",
      "outputs": [
        {
          "internalType": "uint256",
          "name": "",
          "type": "uint256"
        }
      ],
      "stateMutability": "view",
      "type": "function"
    },
    {
      "inputs": [
        {
          "internalType": "address",
          "name": "spender",
          "type": "address"
        },
        {
          "internalType": "uint256",
          "name": "amount",
          "type": "uint256"
        }
      ],
      "name": "approve",
      "outputs": [
        {
          "internalType": "bool",
          "name": "",
          "type": "bool"
        }
      ],
      "stateMutability": "nonpayable",
      "type": "function"
    },
    {
      "inputs": [
        {
          "internalType": "address",
          "name": "account",
          "type": "address"
        }
      ],
      "name": "balanceOf",
      "outputs": [
        {
          "internalType": "uint256",
          "name": "",
          "type": "uint256"
        }
      ],
      "stateMutability": "view",
      "type": "function"
    },
    {
      "inputs": [],
      "name": "chef",
      "outputs": [
        {
          "internalType": "contract IMdexChef",
          "name": "",
          "type": "address"
        }
      ],
      "stateMutability": "view",
      "type": "function"
    },
    {
      "inputs": [],
      "name": "chefPid",
      "outputs": [
        {
          "internalType": "uint256",
          "name": "",
          "type": "uint256"
        }
      ],
      "stateMutability": "view",
      "type": "function"
    },
    {
      "inputs": [],
      "name": "chefToken",
      "outputs": [
        {
          "internalType": "address",
          "name": "",
          "type": "address"
        }
      ],
      "stateMutability": "view",
      "type": "function"
    },
    {
      "inputs": [],
      "name": "decimals",
      "outputs": [
        {
          "internalType": "uint8",
          "name": "",
          "type": "uint8"
        }
      ],
      "stateMutability": "view",
      "type": "function"
    },
    {
      "inputs": [
        {
          "internalType": "address",
          "name": "spender",
          "type": "address"
        },
        {
          "internalType": "uint256",
          "name": "subtractedValue",
          "type": "uint256"
        }
      ],
      "name": "decreaseAllowance",
      "outputs": [
        {
          "internalType": "bool",
          "name": "",
          "type": "bool"
        }
      ],
      "stateMutability": "nonpayable",
      "type": "function"
    },
    {
      "inputs": [
        {
          "internalType": "address",
          "name": "forAddr",
          "type": "address"
        }
      ],
      "name": "deposit",
      "outputs": [],
      "stateMutability": "nonpayable",
      "type": "function"
    },
    {
      "inputs": [],
      "name": "doHardWork",
      "outputs": [],
      "stateMutability": "nonpayable",
      "type": "function"
    },
    {
      "inputs": [],
      "name": "emergencyWithdraw",
      "outputs": [],
      "stateMutability": "nonpayable",
      "type": "function"
    },
    {
      "inputs": [],
      "name": "getExchangeRate",
      "outputs": [
        {
          "internalType": "uint256",
          "name": "",
          "type": "uint256"
        }
      ],
      "stateMutability": "view",
      "type": "function"
    },
    {
      "inputs": [
        {
          "internalType": "address",
          "name": "spender",
          "type": "address"
        },
        {
          "internalType": "uint256",
          "name": "addedValue",
          "type": "uint256"
        }
      ],
      "name": "increaseAllowance",
      "outputs": [
        {
          "internalType": "bool",
          "name": "",
          "type": "bool"
        }
      ],
      "stateMutability": "nonpayable",
      "type": "function"
    },
    {
      "inputs": [
        {
          "internalType": "address",
          "name": "from",
          "type": "address"
        }
      ],
      "name": "isAdmin",
      "outputs": [
        {
          "internalType": "bool",
          "name": "",
          "type": "bool"
        }
      ],
      "stateMutability": "view",
      "type": "function"
    },
    {
      "inputs": [
        {
          "internalType": "address",
          "name": "",
          "type": "address"
        }
      ],
      "name": "lastOperateTimestamp",
      "outputs": [
        {
          "internalType": "uint256",
          "name": "",
          "type": "uint256"
        }
      ],
      "stateMutability": "view",
      "type": "function"
    },
    {
      "inputs": [],
      "name": "lpToken",
      "outputs": [
        {
          "internalType": "address",
          "name": "",
          "type": "address"
        }
      ],
      "stateMutability": "view",
      "type": "function"
    },
    {
      "inputs": [],
      "name": "name",
      "outputs": [
        {
          "internalType": "string",
          "name": "",
          "type": "string"
        }
      ],
      "stateMutability": "view",
      "type": "function"
    },
    {
      "inputs": [],
      "name": "paused",
      "outputs": [
        {
          "internalType": "bool",
          "name": "",
          "type": "bool"
        }
      ],
      "stateMutability": "view",
      "type": "function"
    },
    {
      "inputs": [],
      "name": "swapStore",
      "outputs": [
        {
          "internalType": "contract ISwapStorage",
          "name": "",
          "type": "address"
        }
      ],
      "stateMutability": "view",
      "type": "function"
    },
    {
      "inputs": [],
      "name": "symbol",
      "outputs": [
        {
          "internalType": "string",
          "name": "",
          "type": "string"
        }
      ],
      "stateMutability": "view",
      "type": "function"
    },
    {
      "inputs": [],
      "name": "totalSupply",
      "outputs": [
        {
          "internalType": "uint256",
          "name": "",
          "type": "uint256"
        }
      ],
      "stateMutability": "view",
      "type": "function"
    },
    {
      "inputs": [
        {
          "internalType": "address",
          "name": "recipient",
          "type": "address"
        },
        {
          "internalType": "uint256",
          "name": "amount",
          "type": "uint256"
        }
      ],
      "name": "transfer",
      "outputs": [
        {
          "internalType": "bool",
          "name": "",
          "type": "bool"
        }
      ],
      "stateMutability": "nonpayable",
      "type": "function"
    },
    {
      "inputs": [
        {
          "internalType": "address",
          "name": "sender",
          "type": "address"
        },
        {
          "internalType": "address",
          "name": "recipient",
          "type": "address"
        },
        {
          "internalType": "uint256",
          "name": "amount",
          "type": "uint256"
        }
      ],
      "name": "transferFrom",
      "outputs": [
        {
          "internalType": "bool",
          "name": "",
          "type": "bool"
        }
      ],
      "stateMutability": "nonpayable",
      "type": "function"
    },
    {
      "inputs": [
        {
          "internalType": "address",
          "name": "to",
          "type": "address"
        }
      ],
      "name": "withdraw",
      "outputs": [],
      "stateMutability": "nonpayable",
      "type": "function"
    }
  ],
  "transactionHash": "0xce8c936e43295612b560d53604ed39ce9a54e452b3c9cf85c8de60e979641ed3",
  "args": [
    "0x03313eC6073201b5E46E7F6eB938d328941803E9",
    "0xa249B2Ed4A18022fCC3820f40554698ec2f00621",
    "0xFB03e11D93632D97a8981158A632Dd5986F5E909",
    "0x25D2e80cB6B86881Fd7e07dd263Fb79f4AbE033c",
    "0x615E6285c5944540fd8bd921c9c8c56739Fd1E13",
    "16"
  ],
  "solcInputHash": "b7597338a4de26f0728b179094988ff3",
  "bytecode": "0x60806040523480156200001157600080fd5b5060405162003d6838038062003d68833981810160405260c08110156200003757600080fd5b50805160208083015160408401516060850151608086015160a0909601519495929491939092919062000075908390620010a1620003a6821b17901c565b604051602001808061782760f01b81525060020182805190602001908083835b60208310620000b65780518252601f19909201916020918201910162000095565b6001836020036101000a03801982511681845116808217855250505050505090500191505060405160208183030381529060405262000100836200058860201b620012751760201c565b604051602001808061782760f01b81525060020182805190602001908083835b60208310620001415780518252601f19909201916020918201910162000120565b6001836020036101000a0380198251168184511680821785525050505050509050019150506040516020818303038152906040528760006001600160a01b0316816001600160a01b03161415620001df576040805162461bcd60e51b815260206004820152601e60248201527f6e65772073746f726167652073686f756c646e277420626520656d7074790000604482015290519081900360640190fd5b600080546001600160a01b0319166001600160a01b03929092169190911760ff60a01b1916905581516200021b9060049060208501906200071b565b508051620002319060059060208401906200071b565b50506006805460ff1916601217905550600a80546001600160a01b038088166001600160a01b03199092169190911790915560408051631526fe2760e01b815260048101849052905191861691631526fe279160248082019260c092909190829003018186803b158015620002a557600080fd5b505afa158015620002ba573d6000803e3d6000fd5b505050506040513d60c0811015620002d157600080fd5b5051600980546001600160a01b0319166001600160a01b039283161790819055838216911614620002fe57fe5b60068054610100600160a81b0319166101006001600160a01b038781169190910291909117909155600780546001600160a01b03191685831617905560088290556009546200035a9116620005f2602090811b620012dd17901c565b60ff166012146200039a576200039a62000394600960009054906101000a90046001600160a01b0316620005f260201b620012dd1760201c565b62000705565b505050505050620007c7565b60408051600481526024810182526020810180516001600160e01b03166306fdde0360e01b1781529151815160609360009385936001600160a01b03881693919290918291908083835b60208310620004115780518252601f199092019160209182019101620003f0565b6001836020036101000a038019825116818451168082178552505050505050905001915050600060405180830381855afa9150503d806000811462000473576040519150601f19603f3d011682016040523d82523d6000602084013e62000478565b606091505b50915091508180156200048c575060008151115b620004b357604051806040016040528060038152602001623f3f3f60e81b81525062000580565b808060200190516020811015620004c957600080fd5b8101908080516040519392919084640100000000821115620004ea57600080fd5b9083019060208201858111156200050057600080fd5b82516401000000008111828201881017156200051b57600080fd5b82525081516020918201929091019080838360005b838110156200054a57818101518382015260200162000530565b50505050905090810190601f168015620005785780820380516001836020036101000a031916815260200191505b506040525050505b949350505050565b60408051600481526024810182526020810180516001600160e01b03166395d89b4160e01b1781529151815160609360009385936001600160a01b038816939192909182919080838360208310620004115780518252601f199092019160209182019101620003f0565b60408051600481526024810182526020810180516001600160e01b031663313ce56760e01b1781529151815160009384936060936001600160a01b03881693919290918291908083835b602083106200065d5780518252601f1990920191602091820191016200063c565b6001836020036101000a038019825116818451168082178552505050505050905001915050600060405180830381855afa9150503d8060008114620006bf576040519150601f19603f3d011682016040523d82523d6000602084013e620006c4565b606091505b5091509150818015620006d8575080516020145b620006e557601262000580565b808060200190516020811015620006fb57600080fd5b5051949350505050565b6006805460ff191660ff92909216919091179055565b828054600181600116156101000203166002900490600052602060002090601f0160209004810192826200075357600085556200079e565b82601f106200076e57805160ff19168380011785556200079e565b828001600101855582156200079e579182015b828111156200079e57825182559160200191906001019062000781565b50620007ac929150620007b0565b5090565b5b80821115620007ac5760008155600101620007b1565b61359180620007d76000396000f3fe608060405234801561001057600080fd5b50600436106101c45760003560e01c80635c975abb116100f9578063bbeabc2611610097578063e4e73b9a11610071578063e4e73b9a14610516578063e6aa216c1461051e578063f340fa0114610526578063f851a4401461054c576101c4565b8063bbeabc26146104ba578063db2e21bc146104e0578063dd62ed3e146104e8576101c4565b806391817d74116100d357806391817d741461045257806395d89b411461045a578063a457c2d714610462578063a9059cbb1461048e576101c4565b80635c975abb1461041c5780635fcbd2851461042457806370a082311461042c576101c4565b8063313ce5671161016657806343c569341161014057806343c56934146103be578063470d4541146103e45780634fa5d854146103ec57806351cff8d9146103f6576101c4565b8063313ce5671461036c57806337eabb8d1461038a5780633950935114610392576101c4565b806318160ddd116101a257806318160ddd146102d25780631fc8bc5d146102ec57806323b872dd1461031057806324d7806c14610346576101c4565b8063014a296f146101c957806306fdde0314610215578063095ea7b314610292575b600080fd5b6101ef600480360360208110156101df57600080fd5b50356001600160a01b0316610554565b604080519485526020850193909352838301919091526060830152519081900360800190f35b61021d6105a8565b6040805160208082528351818301528351919283929083019185019080838360005b8381101561025757818101518382015260200161023f565b50505050905090810190601f1680156102845780820380516001836020036101000a031916815260200191505b509250505060405180910390f35b6102be600480360360408110156102a857600080fd5b506001600160a01b03813516906020013561063f565b604080519115158252519081900360200190f35b6102da61065d565b60408051918252519081900360200190f35b6102f4610663565b604080516001600160a01b039092168252519081900360200190f35b6102be6004803603606081101561032657600080fd5b506001600160a01b03813581169160208101359091169060400135610677565b6102be6004803603602081101561035c57600080fd5b50356001600160a01b03166106ff565b610374610781565b6040805160ff9092168252519081900360200190f35b6102f461078a565b6102be600480360360408110156103a857600080fd5b506001600160a01b038135169060200135610799565b6102da600480360360208110156103d457600080fd5b50356001600160a01b03166107e7565b6102f46107f9565b6103f4610808565b005b6103f46004803603602081101561040c57600080fd5b50356001600160a01b031661085f565b6102be610a7c565b6102f4610a8c565b6102da6004803603602081101561044257600080fd5b50356001600160a01b0316610a9b565b6102da610ab6565b61021d610abc565b6102be6004803603604081101561047857600080fd5b506001600160a01b038135169060200135610b1d565b6102be600480360360408110156104a457600080fd5b506001600160a01b038135169060200135610b85565b6102da600480360360208110156104d057600080fd5b50356001600160a01b0316610b99565b6103f4610bab565b6102da600480360360408110156104fe57600080fd5b506001600160a01b0381358116916020013516610cdc565b6102f4610d07565b6102da610d16565b6103f46004803603602081101561053c57600080fd5b50356001600160a01b0316610d67565b6102f4611021565b6001600160a01b0381166000908152600c602052604081205490808061057985610a9b565b9250610583610d16565b6001600160a01b039095166000908152600d6020526040902054939592949392915050565b60048054604080516020601f60026000196101006001881615020190951694909404938401819004810282018101909252828152606093909290918301828280156106345780601f1061060957610100808354040283529160200191610634565b820191906000526020600020905b81548152906001019060200180831161061757829003601f168201915b505050505090505b90565b600061065361064c6113e8565b84846113ec565b5060015b92915050565b60035490565b60065461010090046001600160a01b031681565b60006106848484846114d8565b6106f4846106906113e8565b6106ef8560405180606001604052806028815260200161344e602891396001600160a01b038a166000908152600260205260408120906106ce6113e8565b6001600160a01b031681526020810191909152604001600020549190611635565b6113ec565b5060015b9392505050565b6000805460408051630935e01b60e21b81526001600160a01b038581166004830152915191909216916324d7806c916024808301926020929190829003018186803b15801561074d57600080fd5b505afa158015610761573d6000803e3d6000fd5b505050506040513d602081101561077757600080fd5b505190505b919050565b60065460ff1690565b6007546001600160a01b031681565b60006106536107a66113e8565b846106ef85600260006107b76113e8565b6001600160a01b03908116825260208083019390935260409182016000908120918c1681529252902054906116cc565b600d6020526000908152604090205481565b6000546001600160a01b031681565b610810610a7c565b15610855576040805162461bcd60e51b815260206004820152601060248201526f14185d5cd8589b194e881c185d5cd95960821b604482015290519081900360640190fd5b61085d611726565b565b610867610a7c565b61087357610873611726565b600061087e30610a9b565b90508061088b5750610a79565b6000610895610d16565b905060006108b5670de0b6b3a76400006108af85856119b1565b90611a0a565b600954604080516370a0823160e01b815230600482015290519293506000926001600160a01b03909216916370a0823191602480820192602092909190829003018186803b15801561090657600080fd5b505afa15801561091a573d6000803e3d6000fd5b505050506040513d602081101561093057600080fd5b50519050808211156109b8576006546008546101009091046001600160a01b03169063441a3e70906109628585611a71565b6040518363ffffffff1660e01b81526004018083815260200182815260200192505050600060405180830381600087803b15801561099f57600080fd5b505af11580156109b3573d6000803e3d6000fd5b505050505b6109c23085611ace565b6009546109d9906001600160a01b03168684611bca565b600b546109e69083611a71565b600b556109f1610d16565b9250610a12670de0b6b3a76400006108af85610a0c89610a9b565b906119b1565b6001600160a01b0386166000818152600c6020908152604080832094909455600d8152908390204290558251878152908101859052825191927ff279e6a1f5e320cca91135676d9cb6e44ca8a08c0b88342bcdb1144f6511b56892918290030190a2505050505b50565b600054600160a01b900460ff1690565b6009546001600160a01b031681565b6001600160a01b031660009081526001602052604090205490565b60085481565b60058054604080516020601f60026000196101006001881615020190951694909404938401819004810282018101909252828152606093909290918301828280156106345780601f1061060957610100808354040283529160200191610634565b6000610653610b2a6113e8565b846106ef856040518060600160405280602581526020016135376025913960026000610b546113e8565b6001600160a01b03908116825260208083019390935260409182016000908120918d16815292529020549190611635565b6000610653610b926113e8565b84846114d8565b600c6020526000908152604090205481565b60005460408051630935e01b60e21b815233600482015290516001600160a01b03909216916324d7806c91602480820192602092909190829003018186803b158015610bf657600080fd5b505afa158015610c0a573d6000803e3d6000fd5b505050506040513d6020811015610c2057600080fd5b5051610c5f576040805162461bcd60e51b81526020600482015260096024820152682737ba1030b236b4b760b91b604482015290519081900360640190fd5b600660019054906101000a90046001600160a01b03166001600160a01b0316635312ea8e6008546040518263ffffffff1660e01b815260040180828152602001915050600060405180830381600087803b158015610cbc57600080fd5b505af1158015610cd0573d6000803e3d6000fd5b5050505061085d611d1e565b6001600160a01b03918216600090815260026020908152604080832093909416825291909152205490565b600a546001600160a01b031681565b6000610d2061065d565b1580610d2c5750600b54155b15610d405750670de0b6b3a764000061063c565b610d60610d4b61065d565b600b546108af90670de0b6b3a76400006119b1565b905061063c565b610d6f610a7c565b15610db4576040805162461bcd60e51b815260206004820152601060248201526f14185d5cd8589b194e881c185d5cd95960821b604482015290519081900360640190fd5b610dbc611726565b600954604080516370a0823160e01b815230600482015290516000926001600160a01b0316916370a08231916024808301926020929190829003018186803b158015610e0757600080fd5b505afa158015610e1b573d6000803e3d6000fd5b505050506040513d6020811015610e3157600080fd5b5051905080610e405750610a79565b6000610e4a610d16565b90506000610e64826108af85670de0b6b3a76400006119b1565b9050610e708482611dc4565b610e8984336106ef84610e838933610cdc565b906116cc565b600b54610e9690846116cc565b600b556009546006546040805163095ea7b360e01b81526101009092046001600160a01b03908116600484015260248301879052905192169163095ea7b3916044808201926020929091908290030181600087803b158015610ef757600080fd5b505af1158015610f0b573d6000803e3d6000fd5b505050506040513d6020811015610f2157600080fd5b505060065460085460408051631c57762b60e31b8152600481019290925260248201869052516101009092046001600160a01b03169163e2bbb1589160448082019260009290919082900301818387803b158015610f7e57600080fd5b505af1158015610f92573d6000803e3d6000fd5b50505050610f9e610d16565b9150610fb9670de0b6b3a76400006108af84610a0c88610a9b565b6001600160a01b0385166000818152600c6020908152604080832094909455600d8152908390204290558251848152908101869052825191927f90890809c654f11d6e72a28fa60149770a0d11ec6c92319d6ceb2bb0a4ea1a1592918290030190a250505050565b60008060009054906101000a90046001600160a01b03166001600160a01b031663f851a4406040518163ffffffff1660e01b815260040160206040518083038186803b15801561107057600080fd5b505afa158015611084573d6000803e3d6000fd5b505050506040513d602081101561109a57600080fd5b5051905090565b60408051600481526024810182526020810180516001600160e01b03166306fdde0360e01b1781529151815160609360009385936001600160a01b03881693919290918291908083835b6020831061110a5780518252601f1990920191602091820191016110eb565b6001836020036101000a038019825116818451168082178552505050505050905001915050600060405180830381855afa9150503d806000811461116a576040519150601f19603f3d011682016040523d82523d6000602084013e61116f565b606091505b5091509150818015611182575060008151115b6111a757604051806040016040528060038152602001623f3f3f60e81b81525061126d565b8080602001905160208110156111bc57600080fd5b81019080805160405193929190846401000000008211156111dc57600080fd5b9083019060208201858111156111f157600080fd5b825164010000000081118282018810171561120b57600080fd5b82525081516020918201929091019080838360005b83811015611238578181015183820152602001611220565b50505050905090810190601f1680156112655780820380516001836020036101000a031916815260200191505b506040525050505b949350505050565b60408051600481526024810182526020810180516001600160e01b03166395d89b4160e01b1781529151815160609360009385936001600160a01b03881693919290918291908083836020831061110a5780518252601f1990920191602091820191016110eb565b60408051600481526024810182526020810180516001600160e01b031663313ce56760e01b1781529151815160009384936060936001600160a01b03881693919290918291908083835b602083106113465780518252601f199092019160209182019101611327565b6001836020036101000a038019825116818451168082178552505050505050905001915050600060405180830381855afa9150503d80600081146113a6576040519150601f19603f3d011682016040523d82523d6000602084013e6113ab565b606091505b50915091508180156113be575080516020145b6113c957601261126d565b8080602001905160208110156113de57600080fd5b5051949350505050565b3390565b6001600160a01b0383166114315760405162461bcd60e51b81526004018080602001828103825260248152602001806134bc6024913960400191505060405180910390fd5b6001600160a01b0382166114765760405162461bcd60e51b81526004018080602001828103825260228152602001806133bf6022913960400191505060405180910390fd5b6001600160a01b03808416600081815260026020908152604080832094871680845294825291829020859055815185815291517f8c5be1e5ebec7d5bd14f71427d1e84f3dd0314c0f7b2291e5b200ac8c7c3b9259281900390910190a3505050565b6001600160a01b03831661151d5760405162461bcd60e51b81526004018080602001828103825260258152602001806134976025913960400191505060405180910390fd5b6001600160a01b0382166115625760405162461bcd60e51b815260040180806020018281038252602381526020018061337a6023913960400191505060405180910390fd5b61156d838383611eb6565b6115aa816040518060600160405280602681526020016133e1602691396001600160a01b0386166000908152600160205260409020549190611635565b6001600160a01b0380851660009081526001602052604080822093909355908416815220546115d990826116cc565b6001600160a01b0380841660008181526001602090815260409182902094909455805185815290519193928716927fddf252ad1be2c89b69c2b068fc378daa952ba7f163c4a11628f55a4df523b3ef92918290030190a3505050565b600081848411156116c45760405162461bcd60e51b81526004018080602001828103825283818151815260200191508051906020019080838360005b83811015611689578181015183820152602001611671565b50505050905090810190601f1680156116b65780820380516001836020036101000a031916815260200191505b509250505060405180910390fd5b505050900390565b6000828201838110156106f8576040805162461bcd60e51b815260206004820152601b60248201527f536166654d6174683a206164646974696f6e206f766572666c6f770000000000604482015290519081900360640190fd5b600660019054906101000a90046001600160a01b03166001600160a01b031663441a3e7060085460006040518363ffffffff1660e01b81526004018083815260200182815260200192505050600060405180830381600087803b15801561178c57600080fd5b505af11580156117a0573d6000803e3d6000fd5b5050600754604080516370a0823160e01b81523060048201529051600094506001600160a01b0390921692506370a08231916024808301926020929190829003018186803b1580156117f157600080fd5b505afa158015611805573d6000803e3d6000fd5b505050506040513d602081101561181b57600080fd5b505190508015610a7957600a5460075460095460009261184d926001600160a01b039182169290821691168530611ebb565b600b549093509150611861905081836116cc565b600b556009546006546040805163095ea7b360e01b81526101009092046001600160a01b03908116600484015260248301869052905192169163095ea7b3916044808201926020929091908290030181600087803b1580156118c257600080fd5b505af11580156118d6573d6000803e3d6000fd5b505050506040513d60208110156118ec57600080fd5b505060065460085460408051631c57762b60e31b8152600481019290925260248201859052516101009092046001600160a01b03169163e2bbb1589160448082019260009290919082900301818387803b15801561194957600080fd5b505af115801561195d573d6000803e3d6000fd5b505050507f3af263237d73bbd05b0ec091a08990f362495edd70fb70b537c90bf0c07ac50061198a61065d565b600b54604080519283526020830185905282810191909152519081900360600190a1505050565b6000826119c057506000610657565b828202828482816119cd57fe5b04146106f85760405162461bcd60e51b815260040180806020018281038252602181526020018061342d6021913960400191505060405180910390fd5b6000808211611a60576040805162461bcd60e51b815260206004820152601a60248201527f536166654d6174683a206469766973696f6e206279207a65726f000000000000604482015290519081900360640190fd5b818381611a6957fe5b049392505050565b600082821115611ac8576040805162461bcd60e51b815260206004820152601e60248201527f536166654d6174683a207375627472616374696f6e206f766572666c6f770000604482015290519081900360640190fd5b50900390565b6001600160a01b038216611b135760405162461bcd60e51b81526004018080602001828103825260218152602001806134766021913960400191505060405180910390fd5b611b1f82600083611eb6565b611b5c8160405180606001604052806022815260200161339d602291396001600160a01b0385166000908152600160205260409020549190611635565b6001600160a01b038316600090815260016020526040902055600354611b829082611a71565b6003556040805182815290516000916001600160a01b038516917fddf252ad1be2c89b69c2b068fc378daa952ba7f163c4a11628f55a4df523b3ef9181900360200190a35050565b604080516001600160a01b038481166024830152604480830185905283518084039091018152606490920183526020820180516001600160e01b031663a9059cbb60e01b178152925182516000946060949389169392918291908083835b60208310611c475780518252601f199092019160209182019101611c28565b6001836020036101000a0380198251168184511680821785525050505050509050019150506000604051808303816000865af19150503d8060008114611ca9576040519150601f19603f3d011682016040523d82523d6000602084013e611cae565b606091505b5091509150818015611cdc575080511580611cdc5750808060200190516020811015611cd957600080fd5b50515b611d175760405162461bcd60e51b815260040180806020018281038252602d8152602001806134e0602d913960400191505060405180910390fd5b5050505050565b611d26610a7c565b15611d6b576040805162461bcd60e51b815260206004820152601060248201526f14185d5cd8589b194e881c185d5cd95960821b604482015290519081900360640190fd5b6000805460ff60a01b1916600160a01b1790557f62e78cea01bee320cd4e420270b5ea74000d11b0c9f74754ebdbfc544b05a258611da76113e8565b604080516001600160a01b039092168252519081900360200190a1565b6001600160a01b038216611e1f576040805162461bcd60e51b815260206004820152601f60248201527f45524332303a206d696e7420746f20746865207a65726f206164647265737300604482015290519081900360640190fd5b611e2b60008383611eb6565b600354611e3890826116cc565b6003556001600160a01b038216600090815260016020526040902054611e5e90826116cc565b6001600160a01b03831660008181526001602090815260408083209490945583518581529351929391927fddf252ad1be2c89b69c2b068fc378daa952ba7f163c4a11628f55a4df523b3ef9281900390910190a35050565b505050565b600080600080866001600160a01b0316630dfe16816040518163ffffffff1660e01b815260040160206040518083038186803b158015611efa57600080fd5b505afa158015611f0e573d6000803e3d6000fd5b505050506040513d601f19601f82011682018060405250810190611f329190612f45565b90506000876001600160a01b031663d21220a76040518163ffffffff1660e01b815260040160206040518083038186803b158015611f6f57600080fd5b505afa158015611f83573d6000803e3d6000fd5b505050506040513d601f19601f82011682018060405250810190611fa79190612f45565b9050600080611fb7896002611a0a565b9850611fc1612e67565b611fc9612e67565b856001600160a01b03168d6001600160a01b031614612094578d6001600160a01b031663c68b43d88e886040518363ffffffff1660e01b8152600401612010929190613075565b60006040518083038186803b15801561202857600080fd5b505afa15801561203c573d6000803e3d6000fd5b505050506040513d6000823e601f3d908101601f191682016040526120649190810190612f5f565b915060606120728c8461227b565b90508060018251038151811061208457fe5b6020026020010151945050612098565b8a93505b846001600160a01b03168d6001600160a01b031614612163578d6001600160a01b031663c68b43d88e876040518363ffffffff1660e01b81526004016120df929190613075565b60006040518083038186803b1580156120f757600080fd5b505afa15801561210b573d6000803e3d6000fd5b505050506040513d6000823e601f3d908101601f191682016040526121339190810190612f5f565b905060606121418c8361227b565b90508060018251038151811061215357fe5b6020026020010151935050612167565b8a92505b6121758c858560008061228a565b90995097506001600160a01b038d81169087161461219b57612199898c84306123cd565b505b846001600160a01b03168d6001600160a01b0316146121c2576121c0888c83306123cd565b505b6121d66001600160a01b0387168d8b61247c565b6121ea6001600160a01b0386168d8a61247c565b6040516335313c2160e11b81526001600160a01b038d1690636a62784290612216908d90600401613061565b602060405180830381600087803b15801561223057600080fd5b505af1158015612244573d6000803e3d6000fd5b505050506040513d601f19601f820116820180604052508101906122689190613049565b9650505050505050955095509592505050565b60606106f8836103e5846124ce565b600080600080886001600160a01b0316630902f1ac6040518163ffffffff1660e01b815260040160606040518083038186803b1580156122c957600080fd5b505afa1580156122dd573d6000803e3d6000fd5b505050506040513d601f19601f820116820180604052508101906123019190612ffb565b506001600160701b031691506001600160701b03169150816000148015612326575080155b15612336578793508692506123c1565b6000612343898484612611565b905087811161238057858110156123755760405162461bcd60e51b815260040161236c9061310a565b60405180910390fd5b8894509250826123bf565b600061238d898486612611565b90508981111561239957fe5b878110156123b95760405162461bcd60e51b815260040161236c90613292565b94508793505b505b50509550959350505050565b60606123d98584612679565b905083816000815181106123e957fe5b6020026020010151111561240f5760405162461bcd60e51b815260040161236c9061324b565b612471836000015160008151811061242357fe5b60200260200101518260008151811061243857fe5b6020026020010151856020015160008151811061245157fe5b60200260200101516001600160a01b031661247c9092919063ffffffff16565b61126d818484612688565b604080516001600160a01b038416602482015260448082018490528251808303909101815260649091019091526020810180516001600160e01b031663a9059cbb60e01b179052611eb6908490612835565b6060600282602001515110156124f65760405162461bcd60e51b815260040161236c90613150565b81602001515167ffffffffffffffff8111801561251257600080fd5b5060405190808252806020026020018201604052801561253c578160200160208202803683370190505b509050838160008151811061254d57fe5b60200260200101818152505060005b600183602001515103811015612609576000806125c28560000151848151811061258257fe5b60200260200101518660200151858151811061259a57fe5b6020026020010151876020015186600101815181106125b557fe5b60200260200101516128e6565b915091506125e58484815181106125d557fe5b60200260200101518383896129b5565b8484600101815181106125f457fe5b6020908102919091010152505060010161255c565b509392505050565b60008084116126325760405162461bcd60e51b815260040161236c90613206565b6000831180156126425750600082115b61265e5760405162461bcd60e51b815260040161236c90613187565b8261266985846119b1565b8161267057fe5b04949350505050565b60606106f8836103e584612a48565b60005b60018360200151510381101561282f57600080846020015183815181106126ae57fe5b6020026020010151856020015184600101815181106126c957fe5b60200260200101519150915060006126e18383612b7e565b50905060008785600101815181106126f557fe5b60200260200101519050600080836001600160a01b0316866001600160a01b03161461272357826000612727565b6000835b91509150600060028a6020015151038810612742578861275c565b8951805160018a0190811061275357fe5b60200260200101515b90508960000151888151811061276e57fe5b60200260200101516001600160a01b031663022c0d9f848484600067ffffffffffffffff8111801561279f57600080fd5b506040519080825280601f01601f1916602001820160405280156127ca576020820181803683370190505b506040518563ffffffff1660e01b81526004016127ea9493929190613308565b600060405180830381600087803b15801561280457600080fd5b505af1158015612818573d6000803e3d6000fd5b50506001909901985061268b975050505050505050565b50505050565b606061288a826040518060400160405280602081526020017f5361666545524332303a206c6f772d6c6576656c2063616c6c206661696c6564815250856001600160a01b0316612c089092919063ffffffff16565b805190915015611eb6578080602001905160208110156128a957600080fd5b5051611eb65760405162461bcd60e51b815260040180806020018281038252602a81526020018061350d602a913960400191505060405180910390fd5b60008060006128f58585612b7e565b509050600080876001600160a01b0316630902f1ac6040518163ffffffff1660e01b815260040160606040518083038186803b15801561293457600080fd5b505afa158015612948573d6000803e3d6000fd5b505050506040513d601f19601f8201168201806040525081019061296c9190612ffb565b506001600160701b031691506001600160701b03169150826001600160a01b0316876001600160a01b0316146129a35780826129a6565b81815b90999098509650505050505050565b60008085116129d65760405162461bcd60e51b815260040161236c906131cf565b6000841180156129e65750600083115b612a025760405162461bcd60e51b815260040161236c906132d8565b6000612a0e86846119b1565b90506000612a1c82866119b1565b90506000612a3083610e83896103e86119b1565b9050808281612a3b57fe5b0498975050505050505050565b606060028260200151511015612a705760405162461bcd60e51b815260040161236c90613150565b81602001515167ffffffffffffffff81118015612a8c57600080fd5b50604051908082528060200260200182016040528015612ab6578160200160208202803683370190505b5090508381600183510381518110612aca57fe5b602002602001018181525050600060018360200151510390505b801561260957600080612b3685600001516001850381518110612b0357fe5b602002602001015186602001516001860381518110612b1e57fe5b6020026020010151876020015186815181106125b557fe5b91509150612b59848481518110612b4957fe5b6020026020010151838389612c17565b846001850381518110612b6857fe5b6020908102919091010152505060001901612ae4565b600080826001600160a01b0316846001600160a01b03161415612bb35760405162461bcd60e51b815260040161236c9061308f565b826001600160a01b0316846001600160a01b031610612bd3578284612bd6565b83835b90925090506001600160a01b038216612c015760405162461bcd60e51b815260040161236c9061308f565b9250929050565b606061126d8484600085612caa565b6000808511612c385760405162461bcd60e51b815260040161236c906130be565b600084118015612c485750600083115b612c645760405162461bcd60e51b815260040161236c90613187565b6000612c766103e8610a0c87896119b1565b90506000612c8884610a0c878a611a71565b9050612c9f6001828481612c9857fe5b04906116cc565b979650505050505050565b606082471015612ceb5760405162461bcd60e51b81526004018080602001828103825260268152602001806134076026913960400191505060405180910390fd5b612cf485612dfb565b612d45576040805162461bcd60e51b815260206004820152601d60248201527f416464726573733a2063616c6c20746f206e6f6e2d636f6e7472616374000000604482015290519081900360640190fd5b60006060866001600160a01b031685876040518082805190602001908083835b60208310612d845780518252601f199092019160209182019101612d65565b6001836020036101000a03801982511681845116808217855250505050505090500191505060006040518083038185875af1925050503d8060008114612de6576040519150601f19603f3d011682016040523d82523d6000602084013e612deb565b606091505b5091509150612c9f828286612e01565b3b151590565b60608315612e105750816106f8565b825115612e205782518084602001fd5b60405162461bcd60e51b8152602060048201818152845160248401528451859391928392604401919085019080838360008315611689578181015183820152602001611671565b604051806040016040528060608152602001606081525090565b80516001600160a01b038116811461077c57600080fd5b600082601f830112612ea8578081fd5b815167ffffffffffffffff80821115612ebd57fe5b602080830260405182828201018181108582111715612ed857fe5b604052848152945081850192508582018187018301881015612ef957600080fd5b600091505b84821015612f2357612f0f81612e81565b845292820192600191909101908201612efe565b505050505092915050565b80516001600160701b038116811461077c57600080fd5b600060208284031215612f56578081fd5b6106f882612e81565b600060208284031215612f70578081fd5b815167ffffffffffffffff80821115612f87578283fd5b9083019060408286031215612f9a578283fd5b604051604081018181108382111715612faf57fe5b604052825182811115612fc0578485fd5b612fcc87828601612e98565b825250602083015182811115612fe0578485fd5b612fec87828601612e98565b60208301525095945050505050565b60008060006060848603121561300f578182fd5b61301884612f2e565b925061302660208501612f2e565b9150604084015163ffffffff8116811461303e578182fd5b809150509250925092565b60006020828403121561305a578081fd5b5051919050565b6001600160a01b0391909116815260200190565b6001600160a01b0392831681529116602082015260400190565b602080825260159082015274496c6c6567616c20746f6b656e206164647265737360581b604082015260600190565b6020808252602c908201527f556e697377617056324c6962726172793a20494e53554646494349454e545f4f60408201526b155514155517d05353d5539560a21b606082015260800190565b60208082526026908201527f556e69737761705632526f757465723a20494e53554646494349454e545f425f604082015265105353d5539560d21b606082015260800190565b6020808252601e908201527f556e697377617056324c6962726172793a20494e56414c49445f504154480000604082015260600190565b60208082526028908201527f556e697377617056324c6962726172793a20494e53554646494349454e545f4c604082015267495155494449545960c01b606082015260800190565b60208082526019908201527f494e53554646494349454e545f494e5055545f414d4f554e5400000000000000604082015260600190565b60208082526025908201527f556e697377617056324c6962726172793a20494e53554646494349454e545f416040820152641353d5539560da1b606082015260800190565b60208082526027908201527f556e69737761705632526f757465723a204558434553534956455f494e50555460408201526617d05353d5539560ca1b606082015260800190565b60208082526026908201527f556e69737761705632526f757465723a20494e53554646494349454e545f415f604082015265105353d5539560d21b606082015260800190565b602080825260169082015275494e53554646494349454e545f4c495155494449545960501b604082015260600190565b60008582526020858184015260018060a01b0385166040840152608060608401528351806080850152825b8181101561334f5785810183015185820160a001528201613333565b81811115613360578360a083870101525b50601f01601f19169290920160a001969550505050505056fe45524332303a207472616e7366657220746f20746865207a65726f206164647265737345524332303a206275726e20616d6f756e7420657863656564732062616c616e636545524332303a20617070726f766520746f20746865207a65726f206164647265737345524332303a207472616e7366657220616d6f756e7420657863656564732062616c616e6365416464726573733a20696e73756666696369656e742062616c616e636520666f722063616c6c536166654d6174683a206d756c7469706c69636174696f6e206f766572666c6f7745524332303a207472616e7366657220616d6f756e74206578636565647320616c6c6f77616e636545524332303a206275726e2066726f6d20746865207a65726f206164647265737345524332303a207472616e736665722066726f6d20746865207a65726f206164647265737345524332303a20617070726f76652066726f6d20746865207a65726f20616464726573735472616e7366657248656c7065723a3a736166655472616e736665723a207472616e73666572206661696c65645361666545524332303a204552433230206f7065726174696f6e20646964206e6f74207375636365656445524332303a2064656372656173656420616c6c6f77616e63652062656c6f77207a65726fa2646970667358221220a140fbc3acf1bf7d0ce49973c57fb51b977d94cb3b58482b46cd749561a6a4ce64736f6c63430007040033",
  "devdoc": {
    "kind": "dev",
    "methods": {
      "allowance(address,address)": {
        "details": "See {IERC20-allowance}."
      },
      "approve(address,uint256)": {
        "details": "See {IERC20-approve}. Requirements: - `spender` cannot be the zero address."
      },
      "balanceOf(address)": {
        "details": "See {IERC20-balanceOf}."
      },
      "decimals()": {
        "details": "Returns the number of decimals used to get its user representation. For example, if `decimals` equals `2`, a balance of `505` tokens should be displayed to a user as `5,05` (`505 / 10 ** 2`). Tokens usually opt for a value of 18, imitating the relationship between Ether and Wei. This is the value {ERC20} uses, unless {_setupDecimals} is called. NOTE: This information is only used for _display_ purposes: it in no way affects any of the arithmetic of the contract, including {IERC20-balanceOf} and {IERC20-transfer}."
      },
      "decreaseAllowance(address,uint256)": {
        "details": "Atomically decreases the allowance granted to `spender` by the caller. This is an alternative to {approve} that can be used as a mitigation for problems described in {IERC20-approve}. Emits an {Approval} event indicating the updated allowance. Requirements: - `spender` cannot be the zero address. - `spender` must have allowance for the caller of at least `subtractedValue`."
      },
      "increaseAllowance(address,uint256)": {
        "details": "Atomically increases the allowance granted to `spender` by the caller. This is an alternative to {approve} that can be used as a mitigation for problems described in {IERC20-approve}. Emits an {Approval} event indicating the updated allowance. Requirements: - `spender` cannot be the zero address."
      },
      "name()": {
        "details": "Returns the name of the token."
      },
      "paused()": {
        "details": "Returns true if the contract is paused, and false otherwise."
      },
      "symbol()": {
        "details": "Returns the symbol of the token, usually a shorter version of the name."
      },
      "totalSupply()": {
        "details": "See {IERC20-totalSupply}."
      },
      "transfer(address,uint256)": {
        "details": "See {IERC20-transfer}. Requirements: - `recipient` cannot be the zero address. - the caller must have a balance of at least `amount`."
      },
      "transferFrom(address,address,uint256)": {
        "details": "See {IERC20-transferFrom}. Emits an {Approval} event indicating the updated allowance. This is not required by the EIP. See the note at the beginning of {ERC20}. Requirements: - `sender` and `recipient` cannot be the zero address. - `sender` must have a balance of at least `amount`. - the caller must have allowance for ``sender``'s tokens of at least `amount`."
      }
    },
    "version": 1
  },
  "userdoc": {
    "kind": "user",
    "methods": {},
    "version": 1
  },
  "storageLayout": {
    "storage": [
      {
        "astId": 2636,
        "contract": "contracts/investment/AutoInvestment.sol:AutoInvestment",
        "label": "adminStorage",
        "offset": 0,
        "slot": "0",
        "type": "t_contract(AdminStorage)2631"
      },
      {
        "astId": 2156,
        "contract": "contracts/investment/AutoInvestment.sol:AutoInvestment",
        "label": "_paused",
        "offset": 20,
        "slot": "0",
        "type": "t_bool"
      },
      {
        "astId": 1042,
        "contract": "contracts/investment/AutoInvestment.sol:AutoInvestment",
        "label": "_balances",
        "offset": 0,
        "slot": "1",
        "type": "t_mapping(t_address,t_uint256)"
      },
      {
        "astId": 1048,
        "contract": "contracts/investment/AutoInvestment.sol:AutoInvestment",
        "label": "_allowances",
        "offset": 0,
        "slot": "2",
        "type": "t_mapping(t_address,t_mapping(t_address,t_uint256))"
      },
      {
        "astId": 1050,
        "contract": "contracts/investment/AutoInvestment.sol:AutoInvestment",
        "label": "_totalSupply",
        "offset": 0,
        "slot": "3",
        "type": "t_uint256"
      },
      {
        "astId": 1052,
        "contract": "contracts/investment/AutoInvestment.sol:AutoInvestment",
        "label": "_name",
        "offset": 0,
        "slot": "4",
        "type": "t_string_storage"
      },
      {
        "astId": 1054,
        "contract": "contracts/investment/AutoInvestment.sol:AutoInvestment",
        "label": "_symbol",
        "offset": 0,
        "slot": "5",
        "type": "t_string_storage"
      },
      {
        "astId": 1056,
        "contract": "contracts/investment/AutoInvestment.sol:AutoInvestment",
        "label": "_decimals",
        "offset": 0,
        "slot": "6",
        "type": "t_uint8"
      },
      {
        "astId": 4001,
        "contract": "contracts/investment/AutoInvestment.sol:AutoInvestment",
        "label": "chef",
        "offset": 1,
        "slot": "6",
        "type": "t_contract(IMdexChef)3232"
      },
      {
        "astId": 4003,
        "contract": "contracts/investment/AutoInvestment.sol:AutoInvestment",
        "label": "chefToken",
        "offset": 0,
        "slot": "7",
        "type": "t_address"
      },
      {
        "astId": 4005,
        "contract": "contracts/investment/AutoInvestment.sol:AutoInvestment",
        "label": "chefPid",
        "offset": 0,
        "slot": "8",
        "type": "t_uint256"
      },
      {
        "astId": 4007,
        "contract": "contracts/investment/AutoInvestment.sol:AutoInvestment",
        "label": "lpToken",
        "offset": 0,
        "slot": "9",
        "type": "t_address"
      },
      {
        "astId": 4009,
        "contract": "contracts/investment/AutoInvestment.sol:AutoInvestment",
        "label": "swapStore",
        "offset": 0,
        "slot": "10",
        "type": "t_contract(ISwapStorage)3252"
      },
      {
        "astId": 4011,
        "contract": "contracts/investment/AutoInvestment.sol:AutoInvestment",
        "label": "totalAmounts",
        "offset": 0,
        "slot": "11",
        "type": "t_uint256"
      },
      {
        "astId": 4015,
        "contract": "contracts/investment/AutoInvestment.sol:AutoInvestment",
        "label": "accountDeposited",
        "offset": 0,
        "slot": "12",
        "type": "t_mapping(t_address,t_uint256)"
      },
      {
        "astId": 4019,
        "contract": "contracts/investment/AutoInvestment.sol:AutoInvestment",
        "label": "lastOperateTimestamp",
        "offset": 0,
        "slot": "13",
        "type": "t_mapping(t_address,t_uint256)"
      }
    ],
    "types": {
      "t_address": {
        "encoding": "inplace",
        "label": "address",
        "numberOfBytes": "20"
      },
      "t_bool": {
        "encoding": "inplace",
        "label": "bool",
        "numberOfBytes": "1"
      },
      "t_contract(AdminStorage)2631": {
        "encoding": "inplace",
        "label": "contract AdminStorage",
        "numberOfBytes": "20"
      },
      "t_contract(IMdexChef)3232": {
        "encoding": "inplace",
        "label": "contract IMdexChef",
        "numberOfBytes": "20"
      },
      "t_contract(ISwapStorage)3252": {
        "encoding": "inplace",
        "label": "contract ISwapStorage",
        "numberOfBytes": "20"
      },
      "t_mapping(t_address,t_mapping(t_address,t_uint256))": {
        "encoding": "mapping",
        "key": "t_address",
        "label": "mapping(address => mapping(address => uint256))",
        "numberOfBytes": "32",
        "value": "t_mapping(t_address,t_uint256)"
      },
      "t_mapping(t_address,t_uint256)": {
        "encoding": "mapping",
        "key": "t_address",
        "label": "mapping(address => uint256)",
        "numberOfBytes": "32",
        "value": "t_uint256"
      },
      "t_string_storage": {
        "encoding": "bytes",
        "label": "string",
        "numberOfBytes": "32"
      },
      "t_uint256": {
        "encoding": "inplace",
        "label": "uint256",
        "numberOfBytes": "32"
      },
      "t_uint8": {
        "encoding": "inplace",
        "label": "uint8",
        "numberOfBytes": "1"
      }
    }
  }
}