{
  "address": "0x2f035426B8141A1922aD33d5AbB4719581073058",
  "abi": [
    {
      "inputs": [
        {
          "internalType": "address",
          "name": "_adminStorage",
          "type": "address"
        },
        {
          "internalType": "address",
          "name": "_swapStorage",
          "type": "address"
        }
      ],
      "stateMutability": "nonpayable",
      "type": "constructor"
    },
    {
      "inputs": [
        {
          "internalType": "address",
          "name": "pool",
          "type": "address"
        },
        {
          "internalType": "address",
          "name": "account",
          "type": "address"
        }
      ],
      "name": "accountSnapshot",
      "outputs": [
        {
          "internalType": "uint256",
          "name": "deposited",
          "type": "uint256"
        },
        {
          "internalType": "uint256",
          "name": "balance",
          "type": "uint256"
        },
        {
          "internalType": "uint256",
          "name": "exchangeRate",
          "type": "uint256"
        },
        {
          "internalType": "uint256",
          "name": "timestamp",
          "type": "uint256"
        }
      ],
      "stateMutability": "view",
      "type": "function"
    },
    {
      "inputs": [
        {
          "internalType": "address",
          "name": "_pool",
          "type": "address"
        },
        {
          "internalType": "address",
          "name": "_masterChef",
          "type": "address"
        },
        {
          "internalType": "address",
          "name": "_rewardToken",
          "type": "address"
        },
        {
          "internalType": "address",
          "name": "_lpToken",
          "type": "address"
        },
        {
          "internalType": "uint256",
          "name": "_pid",
          "type": "uint256"
        }
      ],
      "name": "addPool",
      "outputs": [],
      "stateMutability": "nonpayable",
      "type": "function"
    },
    {
      "inputs": [],
      "name": "admin",
      "outputs": [
        {
          "internalType": "address",
          "name": "",
          "type": "address"
        }
      ],
      "stateMutability": "view",
      "type": "function"
    },
    {
      "inputs": [],
      "name": "adminStorage",
      "outputs": [
        {
          "internalType": "contract AdminStorage",
          "name": "",
          "type": "address"
        }
      ],
      "stateMutability": "view",
      "type": "function"
    },
    {
      "inputs": [
        {
          "internalType": "uint256",
          "name": "_index",
          "type": "uint256"
        }
      ],
      "name": "delPool",
      "outputs": [],
      "stateMutability": "nonpayable",
      "type": "function"
    },
    {
      "inputs": [
        {
          "internalType": "address",
          "name": "automoulde",
          "type": "address"
        },
        {
          "internalType": "uint256",
          "name": "amount",
          "type": "uint256"
        },
        {
          "internalType": "address",
          "name": "to",
          "type": "address"
        }
      ],
      "name": "deposit",
      "outputs": [],
      "stateMutability": "nonpayable",
      "type": "function"
    },
    {
      "inputs": [],
      "name": "doHardWork",
      "outputs": [],
      "stateMutability": "nonpayable",
      "type": "function"
    },
    {
      "inputs": [],
      "name": "getAllPoolInfo",
      "outputs": [
        {
          "components": [
            {
              "internalType": "address",
              "name": "pool",
              "type": "address"
            },
            {
              "internalType": "address",
              "name": "masterChef",
              "type": "address"
            },
            {
              "internalType": "address",
              "name": "rewardToken",
              "type": "address"
            },
            {
              "internalType": "address",
              "name": "lpToken",
              "type": "address"
            },
            {
              "internalType": "uint256",
              "name": "pid",
              "type": "uint256"
            }
          ],
          "internalType": "struct AutoInvestmentRouter.PoolInfo[]",
          "name": "list",
          "type": "tuple[]"
        }
      ],
      "stateMutability": "view",
      "type": "function"
    },
    {
      "inputs": [
        {
          "internalType": "address",
          "name": "pool",
          "type": "address"
        }
      ],
      "name": "getExchangeRate",
      "outputs": [
        {
          "internalType": "uint256",
          "name": "",
          "type": "uint256"
        }
      ],
      "stateMutability": "view",
      "type": "function"
    },
    {
      "inputs": [
        {
          "internalType": "address",
          "name": "pool",
          "type": "address"
        }
      ],
      "name": "getPoolInfoByPool",
      "outputs": [
        {
          "components": [
            {
              "internalType": "address",
              "name": "pool",
              "type": "address"
            },
            {
              "internalType": "address",
              "name": "masterChef",
              "type": "address"
            },
            {
              "internalType": "address",
              "name": "rewardToken",
              "type": "address"
            },
            {
              "internalType": "address",
              "name": "lpToken",
              "type": "address"
            },
            {
              "internalType": "uint256",
              "name": "pid",
              "type": "uint256"
            }
          ],
          "internalType": "struct AutoInvestmentRouter.PoolInfo",
          "name": "poolInfo",
          "type": "tuple"
        }
      ],
      "stateMutability": "view",
      "type": "function"
    },
    {
      "inputs": [],
      "name": "getPoolInfoNum",
      "outputs": [
        {
          "internalType": "uint256",
          "name": "",
          "type": "uint256"
        }
      ],
      "stateMutability": "view",
      "type": "function"
    },
    {
      "inputs": [
        {
          "internalType": "address",
          "name": "_token",
          "type": "address"
        },
        {
          "internalType": "address",
          "name": "_base",
          "type": "address"
        }
      ],
      "name": "getPrice",
      "outputs": [
        {
          "internalType": "uint256",
          "name": "",
          "type": "uint256"
        }
      ],
      "stateMutability": "view",
      "type": "function"
    },
    {
      "inputs": [
        {
          "internalType": "address[]",
          "name": "_token",
          "type": "address[]"
        },
        {
          "internalType": "address",
          "name": "_base",
          "type": "address"
        }
      ],
      "name": "getPrices",
      "outputs": [
        {
          "internalType": "uint256[]",
          "name": "prices",
          "type": "uint256[]"
        }
      ],
      "stateMutability": "view",
      "type": "function"
    },
    {
      "inputs": [
        {
          "internalType": "address",
          "name": "from",
          "type": "address"
        }
      ],
      "name": "isAdmin",
      "outputs": [
        {
          "internalType": "bool",
          "name": "",
          "type": "bool"
        }
      ],
      "stateMutability": "view",
      "type": "function"
    },
    {
      "inputs": [
        {
          "internalType": "address",
          "name": "_from",
          "type": "address"
        },
        {
          "internalType": "address",
          "name": "_to",
          "type": "address"
        }
      ],
      "name": "pathFor",
      "outputs": [
        {
          "components": [
            {
              "internalType": "address[]",
              "name": "pair",
              "type": "address[]"
            },
            {
              "internalType": "address[]",
              "name": "path",
              "type": "address[]"
            }
          ],
          "internalType": "struct ISwapStorage.PathItem",
          "name": "",
          "type": "tuple"
        }
      ],
      "stateMutability": "view",
      "type": "function"
    },
    {
      "inputs": [
        {
          "internalType": "uint256",
          "name": "",
          "type": "uint256"
        }
      ],
      "name": "poolInfoList",
      "outputs": [
        {
          "internalType": "address",
          "name": "pool",
          "type": "address"
        },
        {
          "internalType": "address",
          "name": "masterChef",
          "type": "address"
        },
        {
          "internalType": "address",
          "name": "rewardToken",
          "type": "address"
        },
        {
          "internalType": "address",
          "name": "lpToken",
          "type": "address"
        },
        {
          "internalType": "uint256",
          "name": "pid",
          "type": "uint256"
        }
      ],
      "stateMutability": "view",
      "type": "function"
    },
    {
      "inputs": [
        {
          "internalType": "address",
          "name": "",
          "type": "address"
        }
      ],
      "name": "poolInfoMap",
      "outputs": [
        {
          "internalType": "uint256",
          "name": "",
          "type": "uint256"
        }
      ],
      "stateMutability": "view",
      "type": "function"
    },
    {
      "inputs": [
        {
          "internalType": "uint256",
          "name": "_index",
          "type": "uint256"
        },
        {
          "internalType": "address",
          "name": "_pool",
          "type": "address"
        },
        {
          "internalType": "address",
          "name": "_masterChef",
          "type": "address"
        },
        {
          "internalType": "address",
          "name": "_rewardToken",
          "type": "address"
        },
        {
          "internalType": "address",
          "name": "_lpToken",
          "type": "address"
        },
        {
          "internalType": "uint256",
          "name": "_pid",
          "type": "uint256"
        }
      ],
      "name": "setPool",
      "outputs": [],
      "stateMutability": "nonpayable",
      "type": "function"
    },
    {
      "inputs": [
        {
          "internalType": "address",
          "name": "automoulde",
          "type": "address"
        },
        {
          "internalType": "uint256",
          "name": "liquidity",
          "type": "uint256"
        },
        {
          "internalType": "address",
          "name": "to",
          "type": "address"
        }
      ],
      "name": "withdraw",
      "outputs": [],
      "stateMutability": "nonpayable",
      "type": "function"
    }
  ],
  "transactionHash": "0x87e3c7d3779e784584939268261b22a9faaf72f31e99302c82be9bb6cf42b5ec",
  "args": [
    "0x03313eC6073201b5E46E7F6eB938d328941803E9",
    "0xa249B2Ed4A18022fCC3820f40554698ec2f00621"
  ],
  "solcInputHash": "b7597338a4de26f0728b179094988ff3",
  "bytecode": "0x60806040523480156200001157600080fd5b5060405162001cc638038062001cc683398101604081905262000034916200011e565b80826001600160a01b03811662000092576040805162461bcd60e51b815260206004820152601e60248201527f6e65772073746f726167652073686f756c646e277420626520656d7074790000604482015290519081900360640190fd5b600080546001600160a01b0319166001600160a01b039283161790558116620000d85760405162461bcd60e51b8152600401620000cf9062000155565b60405180910390fd5b600180546001600160a01b0319166001600160a01b0392909216919091179055506200018c9050565b80516001600160a01b03811681146200011957600080fd5b919050565b6000806040838503121562000131578182fd5b6200013c8362000101565b91506200014c6020840162000101565b90509250929050565b6020808252601e908201527f6e65772073746f726167652073686f756c646e277420626520656d7074790000604082015260600190565b611b2a806200019c6000396000f3fe608060405234801561001057600080fd5b50600436106101215760003560e01c80635e237b98116100ad578063b06dd56511610071578063b06dd56514610289578063c68b43d814610291578063efb7601d146102b1578063f45346dc146102c4578063f851a440146102d757610121565b80635e237b981461021957806369328dec1461022c578063787b40261461023f57806399feafac14610263578063ac41865a1461027657610121565b806324d7806c116100f457806324d7806c146101a757806329413eb1146101c7578063470d4541146101dc5780634fa5d854146101f157806355fba33d146101f957610121565b80630268041e146101265780630c73bda91461014f5780631218c598146101645780631404ce5814610184575b600080fd5b6101396101343660046114b4565b6102df565b6040516101469190611a19565b60405180910390f35b6101576103b7565b60405161014691906118c9565b6101776101723660046114b4565b610452565b6040516101469190611a27565b6101976101923660046114ec565b610464565b6040516101469493929190611a30565b6101ba6101b53660046114b4565b6104f6565b604051610146919061194f565b6101da6101d5366004611742565b610578565b005b6101e46106d0565b6040516101469190611868565b6101da6106df565b61020c6102073660046115c8565b61076d565b6040516101469190611917565b6101da610227366004611712565b610803565b6101da61023a366004611587565b610b0d565b61025261024d366004611712565b610b7c565b604051610146959493929190611896565b6101da610271366004611524565b610bcd565b6101776102843660046114ec565b610d2b565b610177610f5a565b6102a461029f3660046114ec565b610f60565b60405161014691906119d7565b6101776102bf3660046114b4565b610ff5565b6101da6102d2366004611587565b611068565b6101e461114d565b6102e76113ea565b6001600160a01b0382166000908152600360205260409020546103255760405162461bcd60e51b815260040161031c906119ae565b60405180910390fd5b6001600160a01b0382166000908152600360205260409020546002805490916000190190811061035157fe5b60009182526020918290206040805160a081018252600590930290910180546001600160a01b0390811684526001820154811694840194909452600281015484169183019190915260038101549092166060820152600490910154608082015292915050565b60606002805480602002602001604051908101604052809291908181526020016000905b828210156104495760008481526020908190206040805160a0810182526005860290920180546001600160a01b0390811684526001808301548216858701526002830154821693850193909352600382015416606084015260040154608083015290835290920191016103db565b50505050905090565b60036020526000908152604090205481565b600080600080856001600160a01b031663014a296f866040518263ffffffff1660e01b81526004016104969190611868565b60806040518083038186803b1580156104ae57600080fd5b505afa1580156104c2573d6000803e3d6000fd5b505050506040513d601f19601f820116820180604052508101906104e691906117b1565b9299919850965090945092505050565b6000805460408051630935e01b60e21b81526001600160a01b038581166004830152915191909216916324d7806c916024808301926020929190829003018186803b15801561054457600080fd5b505afa158015610558573d6000803e3d6000fd5b505050506040513d602081101561056e57600080fd5b505190505b919050565b60025486106105995760405162461bcd60e51b815260040161031c9061195a565b84600287815481106105a757fe5b906000526020600020906005020160000160006101000a8154816001600160a01b0302191690836001600160a01b0316021790555083600287815481106105ea57fe5b906000526020600020906005020160010160006101000a8154816001600160a01b0302191690836001600160a01b03160217905550826002878154811061062d57fe5b906000526020600020906005020160020160006101000a8154816001600160a01b0302191690836001600160a01b03160217905550816002878154811061067057fe5b906000526020600020906005020160030160006101000a8154816001600160a01b0302191690836001600160a01b0316021790555080600287815481106106b357fe5b906000526020600020906005020160040181905550505050505050565b6000546001600160a01b031681565b60005b60025481101561076a57600281815481106106f957fe5b60009182526020822060059091020154604080516313e9761560e21b815290516001600160a01b0390921692634fa5d8549260048084019382900301818387803b15801561074657600080fd5b505af115801561075a573d6000803e3d6000fd5b5050600190920191506106e29050565b50565b6060825167ffffffffffffffff8111801561078757600080fd5b506040519080825280602002602001820160405280156107b1578160200160208202803683370190505b50905060005b83518110156107fc576107dd8482815181106107cf57fe5b602002602001015184610d2b565b8282815181106107e957fe5b60209081029190910101526001016107b7565b5092915050565b60025481106108245760405162461bcd60e51b815260040161031c9061195a565b6002805460001981019160009160039183918690811061084057fe5b600091825260208083206005909202909101546001600160a01b03168352820192909252604001902055600280548290811061087857fe5b6000918252602090912060059091020154600280546001600160a01b0390921691849081106108a357fe5b906000526020600020906005020160000160006101000a8154816001600160a01b0302191690836001600160a01b03160217905550600281815481106108e557fe5b906000526020600020906005020160010160009054906101000a90046001600160a01b03166002838154811061091757fe5b906000526020600020906005020160010160006101000a8154816001600160a01b0302191690836001600160a01b031602179055506002818154811061095957fe5b906000526020600020906005020160020160009054906101000a90046001600160a01b03166002838154811061098b57fe5b906000526020600020906005020160020160006101000a8154816001600160a01b0302191690836001600160a01b03160217905550600281815481106109cd57fe5b906000526020600020906005020160030160009054906101000a90046001600160a01b0316600283815481106109ff57fe5b906000526020600020906005020160030160006101000a8154816001600160a01b0302191690836001600160a01b0316021790555060028181548110610a4157fe5b90600052602060002090600502016004015460028381548110610a6057fe5b906000526020600020906005020160040181905550816001016003600060028581548110610a8a57fe5b600091825260208083206005909202909101546001600160a01b031683528201929092526040019020556002805480610abf57fe5b60008281526020812060056000199093019283020180546001600160a01b03199081168255600182018054821690556002820180548216905560038201805490911690556004015590555050565b610b19833385856111cd565b6040516351cff8d960e01b81526001600160a01b038416906351cff8d990610b45908490600401611868565b600060405180830381600087803b158015610b5f57600080fd5b505af1158015610b73573d6000803e3d6000fd5b50505050505050565b60028181548110610b8c57600080fd5b6000918252602090912060059091020180546001820154600283015460038401546004909401546001600160a01b0393841695509183169390831692169085565b610bd56113ea565b6001600160a01b03958616808252948616602080830191825294871660408084019182529488166060840190815260808401948552600280546001810182556000828152955160059091027f405787fa12a823e0f2b7631cc41b3ba8828b3321ca811111fa75cd3aa3bb5ace81018054928d166001600160a01b031993841617905594517f405787fa12a823e0f2b7631cc41b3ba8828b3321ca811111fa75cd3aa3bb5acf86018054918d1691831691909117905592517f405787fa12a823e0f2b7631cc41b3ba8828b3321ca811111fa75cd3aa3bb5ad085018054918c1691851691909117905590517f405787fa12a823e0f2b7631cc41b3ba8828b3321ca811111fa75cd3aa3bb5ad18401805491909a1692169190911790975591517f405787fa12a823e0f2b7631cc41b3ba8828b3321ca811111fa75cd3aa3bb5ad2909201919091559354928452600390915290912055565b6000816001600160a01b0316836001600160a01b03161415610d565750670de0b6b3a7640000610f54565b610d5e611418565b610d688484610f60565b90506000816020015151118015610d80575080515115155b8015610d985750806000015151600101816020015151145b610db45760405162461bcd60e51b815260040161031c90611986565b805151670de0b6b3a764000090600019015b6001810115610f4f57600083602001518260010181518110610de457fe5b60200260200101516001600160a01b03166370a0823185600001518481518110610e0a57fe5b60200260200101516040518263ffffffff1660e01b8152600401610e2e9190611868565b60206040518083038186803b158015610e4657600080fd5b505afa158015610e5a573d6000803e3d6000fd5b505050506040513d601f19601f82011682018060405250810190610e7e919061172a565b9050600084602001518381518110610e9257fe5b60200260200101516001600160a01b03166370a0823186600001518581518110610eb857fe5b60200260200101516040518263ffffffff1660e01b8152600401610edc9190611868565b60206040518083038186803b158015610ef457600080fd5b505afa158015610f08573d6000803e3d6000fd5b505050506040513d601f19601f82011682018060405250810190610f2c919061172a565b9050610f4281610f3c868561132a565b90611383565b9350505060001901610dc6565b509150505b92915050565b60025490565b610f68611418565b6001546040516318d1687b60e31b81526001600160a01b039091169063c68b43d890610f9a908690869060040161187c565b60006040518083038186803b158015610fb257600080fd5b505afa158015610fc6573d6000803e3d6000fd5b505050506040513d6000823e601f3d908101601f19168201604052610fee9190810190611676565b9392505050565b6000816001600160a01b031663e6aa216c6040518163ffffffff1660e01b815260040160206040518083038186803b15801561103057600080fd5b505afa158015611044573d6000803e3d6000fd5b505050506040513d601f19601f82011682018060405250810190610f54919061172a565b6000836001600160a01b0316635fcbd2856040518163ffffffff1660e01b815260040160206040518083038186803b1580156110a357600080fd5b505afa1580156110b7573d6000803e3d6000fd5b505050506040513d601f19601f820116820180604052508101906110db91906114d0565b90506110e9813386866111cd565b60405163f340fa0160e01b81526001600160a01b0385169063f340fa0190611115908590600401611868565b600060405180830381600087803b15801561112f57600080fd5b505af1158015611143573d6000803e3d6000fd5b5050505050505050565b60008060009054906101000a90046001600160a01b03166001600160a01b031663f851a4406040518163ffffffff1660e01b815260040160206040518083038186803b15801561119c57600080fd5b505afa1580156111b0573d6000803e3d6000fd5b505050506040513d60208110156111c657600080fd5b5051905090565b604080516001600160a01b0385811660248301528481166044830152606480830185905283518084039091018152608490920183526020820180516001600160e01b03166323b872dd60e01b17815292518251600094606094938a169392918291908083835b602083106112525780518252601f199092019160209182019101611233565b6001836020036101000a0380198251168184511680821785525050505050509050019150506000604051808303816000865af19150503d80600081146112b4576040519150601f19603f3d011682016040523d82523d6000602084013e6112b9565b606091505b50915091508180156112e75750805115806112e757508080602001905160208110156112e457600080fd5b50515b6113225760405162461bcd60e51b8152600401808060200182810382526031815260200180611aa36031913960400191505060405180910390fd5b505050505050565b60008261133957506000610f54565b8282028284828161134657fe5b0414610fee5760405162461bcd60e51b8152600401808060200182810382526021815260200180611ad46021913960400191505060405180910390fd5b60008082116113d9576040805162461bcd60e51b815260206004820152601a60248201527f536166654d6174683a206469766973696f6e206279207a65726f000000000000604482015290519081900360640190fd5b8183816113e257fe5b049392505050565b6040805160a08101825260008082526020820181905291810182905260608101829052608081019190915290565b604051806040016040528060608152602001606081525090565b803561057381611a8d565b600082601f83011261144d578081fd5b815161146061145b82611a6f565b611a4b565b81815291506020808301908481018184028601820187101561148157600080fd5b60005b848110156114a957815161149781611a8d565b84529282019290820190600101611484565b505050505092915050565b6000602082840312156114c5578081fd5b8135610fee81611a8d565b6000602082840312156114e1578081fd5b8151610fee81611a8d565b600080604083850312156114fe578081fd5b823561150981611a8d565b9150602083013561151981611a8d565b809150509250929050565b600080600080600060a0868803121561153b578081fd5b853561154681611a8d565b9450602086013561155681611a8d565b9350604086013561156681611a8d565b9250606086013561157681611a8d565b949793965091946080013592915050565b60008060006060848603121561159b578283fd5b83356115a681611a8d565b92506020840135915060408401356115bd81611a8d565b809150509250925092565b600080604083850312156115da578182fd5b823567ffffffffffffffff8111156115f0578283fd5b8301601f81018513611600578283fd5b803561160e61145b82611a6f565b80828252602080830192508085018982838702880101111561162e578788fd5b8795505b8486101561165957803561164581611a8d565b845260019590950194928101928101611632565b50819650611668818901611432565b955050505050509250929050565b600060208284031215611687578081fd5b815167ffffffffffffffff8082111561169e578283fd5b90830190604082860312156116b1578283fd5b6040516040810181811083821117156116c657fe5b6040528251828111156116d7578485fd5b6116e38782860161143d565b8252506020830151828111156116f7578485fd5b6117038782860161143d565b60208301525095945050505050565b600060208284031215611723578081fd5b5035919050565b60006020828403121561173b578081fd5b5051919050565b60008060008060008060c0878903121561175a578081fd5b86359550602087013561176c81611a8d565b9450604087013561177c81611a8d565b9350606087013561178c81611a8d565b9250608087013561179c81611a8d565b8092505060a087013590509295509295509295565b600080600080608085870312156117c6578384fd5b505082516020840151604085015160609095015191969095509092509050565b6000815180845260208085019450808401835b8381101561181e5781516001600160a01b0316875295820195908201906001016117f9565b509495945050505050565b80516001600160a01b03908116835260208083015182169084015260408083015182169084015260608083015190911690830152608090810151910152565b6001600160a01b0391909116815260200190565b6001600160a01b0392831681529116602082015260400190565b6001600160a01b039586168152938516602085015291841660408401529092166060820152608081019190915260a00190565b6020808252825182820181905260009190848201906040850190845b8181101561190b576118f8838551611829565b9284019260a092909201916001016118e5565b50909695505050505050565b6020808252825182820181905260009190848201906040850190845b8181101561190b57835183529284019291840191600101611933565b901515815260200190565b6020808252601290820152710d2d8d8cacec2d840e0deded840d2dcc8caf60731b604082015260600190565b6020808252600e908201526d1c185d1a081b9bdd08195e1a5cdd60921b604082015260600190565b6020808252600f908201526e706f6f6c206e6f742065786973747360881b604082015260600190565b6000602082528251604060208401526119f360608401826117e6565b90506020840151601f19848303016040850152611a1082826117e6565b95945050505050565b60a08101610f548284611829565b90815260200190565b93845260208401929092526040830152606082015260800190565b60405181810167ffffffffffffffff81118282101715611a6757fe5b604052919050565b600067ffffffffffffffff821115611a8357fe5b5060209081020190565b6001600160a01b038116811461076a57600080fdfe5472616e7366657248656c7065723a3a7472616e7366657246726f6d3a207472616e7366657246726f6d206661696c6564536166654d6174683a206d756c7469706c69636174696f6e206f766572666c6f77a2646970667358221220259870cfd1a9c3a3316a9c7ea42c3a626d4ec092b004a62c28f02ac4dff0a1be64736f6c63430007040033",
  "devdoc": {
    "kind": "dev",
    "methods": {},
    "version": 1
  },
  "userdoc": {
    "kind": "user",
    "methods": {},
    "version": 1
  },
  "storageLayout": {
    "storage": [
      {
        "astId": 2636,
        "contract": "contracts/investment/AutoInvestmentRouter.sol:AutoInvestmentRouter",
        "label": "adminStorage",
        "offset": 0,
        "slot": "0",
        "type": "t_contract(AdminStorage)2631"
      },
      {
        "astId": 3055,
        "contract": "contracts/investment/AutoInvestmentRouter.sol:AutoInvestmentRouter",
        "label": "swapStore",
        "offset": 0,
        "slot": "1",
        "type": "t_contract(SwapStorage)3047"
      },
      {
        "astId": 4734,
        "contract": "contracts/investment/AutoInvestmentRouter.sol:AutoInvestmentRouter",
        "label": "poolInfoList",
        "offset": 0,
        "slot": "2",
        "type": "t_array(t_struct(PoolInfo)4731_storage)dyn_storage"
      },
      {
        "astId": 4738,
        "contract": "contracts/investment/AutoInvestmentRouter.sol:AutoInvestmentRouter",
        "label": "poolInfoMap",
        "offset": 0,
        "slot": "3",
        "type": "t_mapping(t_address,t_uint256)"
      }
    ],
    "types": {
      "t_address": {
        "encoding": "inplace",
        "label": "address",
        "numberOfBytes": "20"
      },
      "t_array(t_struct(PoolInfo)4731_storage)dyn_storage": {
        "base": "t_struct(PoolInfo)4731_storage",
        "encoding": "dynamic_array",
        "label": "struct AutoInvestmentRouter.PoolInfo[]",
        "numberOfBytes": "32"
      },
      "t_contract(AdminStorage)2631": {
        "encoding": "inplace",
        "label": "contract AdminStorage",
        "numberOfBytes": "20"
      },
      "t_contract(SwapStorage)3047": {
        "encoding": "inplace",
        "label": "contract SwapStorage",
        "numberOfBytes": "20"
      },
      "t_mapping(t_address,t_uint256)": {
        "encoding": "mapping",
        "key": "t_address",
        "label": "mapping(address => uint256)",
        "numberOfBytes": "32",
        "value": "t_uint256"
      },
      "t_struct(PoolInfo)4731_storage": {
        "encoding": "inplace",
        "label": "struct AutoInvestmentRouter.PoolInfo",
        "members": [
          {
            "astId": 4722,
            "contract": "contracts/investment/AutoInvestmentRouter.sol:AutoInvestmentRouter",
            "label": "pool",
            "offset": 0,
            "slot": "0",
            "type": "t_address"
          },
          {
            "astId": 4724,
            "contract": "contracts/investment/AutoInvestmentRouter.sol:AutoInvestmentRouter",
            "label": "masterChef",
            "offset": 0,
            "slot": "1",
            "type": "t_address"
          },
          {
            "astId": 4726,
            "contract": "contracts/investment/AutoInvestmentRouter.sol:AutoInvestmentRouter",
            "label": "rewardToken",
            "offset": 0,
            "slot": "2",
            "type": "t_address"
          },
          {
            "astId": 4728,
            "contract": "contracts/investment/AutoInvestmentRouter.sol:AutoInvestmentRouter",
            "label": "lpToken",
            "offset": 0,
            "slot": "3",
            "type": "t_address"
          },
          {
            "astId": 4730,
            "contract": "contracts/investment/AutoInvestmentRouter.sol:AutoInvestmentRouter",
            "label": "pid",
            "offset": 0,
            "slot": "4",
            "type": "t_uint256"
          }
        ],
        "numberOfBytes": "160"
      },
      "t_uint256": {
        "encoding": "inplace",
        "label": "uint256",
        "numberOfBytes": "32"
      }
    }
  }
}