{
  "address": "0xa249B2Ed4A18022fCC3820f40554698ec2f00621",
  "abi": [
    {
      "inputs": [],
      "stateMutability": "nonpayable",
      "type": "constructor"
    },
    {
      "inputs": [],
      "name": "admin",
      "outputs": [
        {
          "internalType": "address",
          "name": "",
          "type": "address"
        }
      ],
      "stateMutability": "view",
      "type": "function"
    },
    {
      "inputs": [
        {
          "internalType": "address",
          "name": "_from",
          "type": "address"
        },
        {
          "internalType": "address",
          "name": "_to",
          "type": "address"
        }
      ],
      "name": "delPath",
      "outputs": [],
      "stateMutability": "nonpayable",
      "type": "function"
    },
    {
      "inputs": [],
      "name": "getAdminStorage",
      "outputs": [
        {
          "internalType": "contract AdminStorage",
          "name": "",
          "type": "address"
        }
      ],
      "stateMutability": "view",
      "type": "function"
    },
    {
      "inputs": [
        {
          "internalType": "address",
          "name": "_store",
          "type": "address"
        }
      ],
      "name": "initialize",
      "outputs": [],
      "stateMutability": "nonpayable",
      "type": "function"
    },
    {
      "inputs": [
        {
          "internalType": "address",
          "name": "from",
          "type": "address"
        }
      ],
      "name": "isAdmin",
      "outputs": [
        {
          "internalType": "bool",
          "name": "",
          "type": "bool"
        }
      ],
      "stateMutability": "view",
      "type": "function"
    },
    {
      "inputs": [
        {
          "internalType": "address",
          "name": "_from",
          "type": "address"
        },
        {
          "internalType": "address",
          "name": "_to",
          "type": "address"
        }
      ],
      "name": "pathFor",
      "outputs": [
        {
          "components": [
            {
              "internalType": "address[]",
              "name": "pair",
              "type": "address[]"
            },
            {
              "internalType": "address[]",
              "name": "path",
              "type": "address[]"
            }
          ],
          "internalType": "struct ISwapStorage.PathItem",
          "name": "",
          "type": "tuple"
        }
      ],
      "stateMutability": "view",
      "type": "function"
    },
    {
      "inputs": [
        {
          "internalType": "address",
          "name": "_from",
          "type": "address"
        },
        {
          "internalType": "address",
          "name": "_to",
          "type": "address"
        },
        {
          "internalType": "address[]",
          "name": "_path",
          "type": "address[]"
        },
        {
          "internalType": "address[]",
          "name": "_pair",
          "type": "address[]"
        }
      ],
      "name": "setPath",
      "outputs": [],
      "stateMutability": "nonpayable",
      "type": "function"
    }
  ],
  "transactionHash": "0xa0e98ccb596ba9e5a776e92b271716bb22b961564c7e1d6a7035dc3d1346f2a8",
  "args": [],
  "solcInputHash": "b7597338a4de26f0728b179094988ff3",
  "bytecode": "0x608060405234801561001057600080fd5b50610c1e806100206000396000f3fe608060405234801561001057600080fd5b506004361061007d5760003560e01c8063c4d66de81161005b578063c4d66de8146100d5578063c68b43d8146100e8578063cac441d514610108578063f851a4401461011b5761007d565b80632182f0501461008257806324d7806c146100a05780636b130e78146100c0575b600080fd5b61008a610123565b6040516100979190610a45565b60405180910390f35b6100b36100ae366004610921565b610138565b6040516100979190610a59565b6100d36100ce366004610974565b6101cf565b005b6100d36100e3366004610921565b61044c565b6100fb6100f6366004610942565b6104f8565b6040516100979190610b78565b6100d3610116366004610942565b6105f1565b61008a6106f0565b6000546201000090046001600160a01b031690565b60008060029054906101000a90046001600160a01b03166001600160a01b03166324d7806c836040518263ffffffff1660e01b815260040180826001600160a01b0316815260200191505060206040518083038186803b15801561019b57600080fd5b505afa1580156101af573d6000803e3d6000fd5b505050506040513d60208110156101c557600080fd5b505190505b919050565b60005460408051630935e01b60e21b81523360048201529051620100009092046001600160a01b0316916324d7806c91602480820192602092909190829003018186803b15801561021f57600080fd5b505afa158015610233573d6000803e3d6000fd5b505050506040513d602081101561024957600080fd5b5051610288576040805162461bcd60e51b81526020600482015260096024820152682737ba1030b236b4b760b91b604482015290519081900360640190fd5b60028310156102b25760405162461bcd60e51b81526004016102a990610a64565b60405180910390fd5b6001810183146102d45760405162461bcd60e51b81526004016102a990610b4b565b838360008181106102e157fe5b90506020020160208101906102f69190610921565b6001600160a01b0316866001600160a01b0316146103265760405162461bcd60e51b81526004016102a990610a91565b8383600019810181811061033657fe5b905060200201602081019061034b9190610921565b6001600160a01b0316856001600160a01b03161461037b5760405162461bcd60e51b81526004016102a990610aee565b61038361080c565b848480806020026020016040519081016040528093929190818152602001838360200280828437600092019190915250505050602080830191909152604080518483028181018401909252848152918591859182919085019084908082843760009201829052509385525050506001600160a01b038089168252600160209081526040808420928a1684529181529120825180518493610427928492910190610826565b5060208281015180516104409260018501920190610826565b50505050505050505050565b600054610100900460ff16806104655750610465610770565b80610473575060005460ff16155b6104ae5760405162461bcd60e51b815260040180806020018281038252602e815260200180610bbb602e913960400191505060405180910390fd5b600054610100900460ff161580156104d9576000805460ff1961ff0019909116610100171660011790555b6104e282610781565b80156104f4576000805461ff00191690555b5050565b61050061080c565b6001600160a01b038084166000908152600160209081526040808320938616835292815290829020825181546060938102820184018552938101848152909391928492849184018282801561057e57602002820191906000526020600020905b81546001600160a01b03168152600190910190602001808311610560575b50505050508152602001600182018054806020026020016040519081016040528092919081815260200182805480156105e057602002820191906000526020600020905b81546001600160a01b031681526001909101906020018083116105c2575b505050505081525050905092915050565b60005460408051630935e01b60e21b81523360048201529051620100009092046001600160a01b0316916324d7806c91602480820192602092909190829003018186803b15801561064157600080fd5b505afa158015610655573d6000803e3d6000fd5b505050506040513d602081101561066b57600080fd5b50516106aa576040805162461bcd60e51b81526020600482015260096024820152682737ba1030b236b4b760b91b604482015290519081900360640190fd5b6001600160a01b0380831660009081526001602090815260408083209385168352929052908120906106dc828261088b565b6106ea60018301600061088b565b50505050565b60008060029054906101000a90046001600160a01b03166001600160a01b031663f851a4406040518163ffffffff1660e01b815260040160206040518083038186803b15801561073f57600080fd5b505afa158015610753573d6000803e3d6000fd5b505050506040513d602081101561076957600080fd5b5051905090565b600061077b30610806565b15905090565b6001600160a01b0381166107dc576040805162461bcd60e51b815260206004820152601e60248201527f6e65772073746f726167652073686f756c646e277420626520656d7074790000604482015290519081900360640190fd5b600080546001600160a01b03909216620100000262010000600160b01b0319909216919091179055565b3b151590565b604051806040016040528060608152602001606081525090565b82805482825590600052602060002090810192821561087b579160200282015b8281111561087b57825182546001600160a01b0319166001600160a01b03909116178255602090920191600190910190610846565b506108879291506108ac565b5090565b50805460008255906000526020600020908101906108a991906108ac565b50565b5b8082111561088757600081556001016108ad565b80356001600160a01b03811681146101ca57600080fd5b60008083601f8401126108e9578182fd5b50813567ffffffffffffffff811115610900578182fd5b602083019150836020808302850101111561091a57600080fd5b9250929050565b600060208284031215610932578081fd5b61093b826108c1565b9392505050565b60008060408385031215610954578081fd5b61095d836108c1565b915061096b602084016108c1565b90509250929050565b6000806000806000806080878903121561098c578182fd5b610995876108c1565b95506109a3602088016108c1565b9450604087013567ffffffffffffffff808211156109bf578384fd5b6109cb8a838b016108d8565b909650945060608901359150808211156109e3578384fd5b506109f089828a016108d8565b979a9699509497509295939492505050565b6000815180845260208085019450808401835b83811015610a3a5781516001600160a01b031687529582019590820190600101610a15565b509495945050505050565b6001600160a01b0391909116815260200190565b901515815260200190565b6020808252601390820152720d2d8d8cacec2d840e0c2e8d040d8cadccee8d606b1b604082015260600190565b6020808252603b908201527f54686520666972737420746f6b656e206f662074686520556e6973776170207260408201527f6f757465206d757374206265207468652066726f6d20746f6b656e0000000000606082015260800190565b60208082526038908201527f546865206c61737420746f6b656e206f662074686520556e697377617020726f60408201527f757465206d7573742062652074686520746f20746f6b656e0000000000000000606082015260800190565b6020808252601390820152720d2d8d8cacec2d840e0c2d2e440d8cadccee8d606b1b604082015260600190565b600060208252825160406020840152610b946060840182610a02565b90506020840151601f19848303016040850152610bb18282610a02565b9594505050505056fe496e697469616c697a61626c653a20636f6e747261637420697320616c726561647920696e697469616c697a6564a264697066735822122062b06655d6f4df83e3b21994e2ba274ae5d11758f7ed9753602c682b518155c064736f6c63430007040033",
  "devdoc": {
    "kind": "dev",
    "methods": {},
    "version": 1
  },
  "userdoc": {
    "kind": "user",
    "methods": {},
    "version": 1
  },
  "storageLayout": {
    "storage": [
      {
        "astId": 471,
        "contract": "contracts/core/SwapStorage.sol:SwapStorage",
        "label": "_initialized",
        "offset": 0,
        "slot": "0",
        "type": "t_bool"
      },
      {
        "astId": 474,
        "contract": "contracts/core/SwapStorage.sol:SwapStorage",
        "label": "_initializing",
        "offset": 1,
        "slot": "0",
        "type": "t_bool"
      },
      {
        "astId": 2711,
        "contract": "contracts/core/SwapStorage.sol:SwapStorage",
        "label": "adminStorage",
        "offset": 2,
        "slot": "0",
        "type": "t_contract(AdminStorage)2631"
      },
      {
        "astId": 2915,
        "contract": "contracts/core/SwapStorage.sol:SwapStorage",
        "label": "pathes",
        "offset": 0,
        "slot": "1",
        "type": "t_mapping(t_address,t_mapping(t_address,t_struct(PathItem)3242_storage))"
      }
    ],
    "types": {
      "t_address": {
        "encoding": "inplace",
        "label": "address",
        "numberOfBytes": "20"
      },
      "t_array(t_address)dyn_storage": {
        "base": "t_address",
        "encoding": "dynamic_array",
        "label": "address[]",
        "numberOfBytes": "32"
      },
      "t_bool": {
        "encoding": "inplace",
        "label": "bool",
        "numberOfBytes": "1"
      },
      "t_contract(AdminStorage)2631": {
        "encoding": "inplace",
        "label": "contract AdminStorage",
        "numberOfBytes": "20"
      },
      "t_mapping(t_address,t_mapping(t_address,t_struct(PathItem)3242_storage))": {
        "encoding": "mapping",
        "key": "t_address",
        "label": "mapping(address => mapping(address => struct ISwapStorage.PathItem))",
        "numberOfBytes": "32",
        "value": "t_mapping(t_address,t_struct(PathItem)3242_storage)"
      },
      "t_mapping(t_address,t_struct(PathItem)3242_storage)": {
        "encoding": "mapping",
        "key": "t_address",
        "label": "mapping(address => struct ISwapStorage.PathItem)",
        "numberOfBytes": "32",
        "value": "t_struct(PathItem)3242_storage"
      },
      "t_struct(PathItem)3242_storage": {
        "encoding": "inplace",
        "label": "struct ISwapStorage.PathItem",
        "members": [
          {
            "astId": 3238,
            "contract": "contracts/core/SwapStorage.sol:SwapStorage",
            "label": "pair",
            "offset": 0,
            "slot": "0",
            "type": "t_array(t_address)dyn_storage"
          },
          {
            "astId": 3241,
            "contract": "contracts/core/SwapStorage.sol:SwapStorage",
            "label": "path",
            "offset": 0,
            "slot": "1",
            "type": "t_array(t_address)dyn_storage"
          }
        ],
        "numberOfBytes": "64"
      }
    }
  }
}